:100000000C942A000C94960A0C94C90A0C94FC0ACD
:100010000C9447000C9447000C9447000C94470044
:100020000C9447000C9447000C9447000C94470034
:100030000C9447000C9447000C9447000C94470024
:100040000C9447000C9447000C9447000C94470014
:100050000C94470011241FBECFE5D8E0DEBFCDBF12
:1000600014E0A0E6B0E0E4EBF9E302C005900D92E5
:10007000A034B107D9F714E0A0E4B4E001C01D92A8
:10008000A835B107E1F70E9471190C94D81C0C94A3
:100090000000EF92FF920F931F937B018C0120E0F1
:1000A00030E040E05FE40E94F50388238CF0C80153
:1000B000B70120E030E040E05FE40E94C1010E940F
:1000C00055049B01AC01205030404040504806C0D0
:1000D000C801B7010E9455049B01AC01B901CA01D6
:1000E0001F910F91FF90EF900895A0E0B0E0EBE733
:1000F000F0E00C945C1CDC012B01FA019C91923025
:1001000008F439C1EB018881823008F433C194309E
:1001100069F4843009F02FC111969C91119789815F
:10012000981709F428C1A7E2B3E025C1843009F487
:1001300021C18230A9F4923009F01DC19A01AD01AC
:1001400088E0EA010990AE01E90109929E0181501F
:10015000C1F7E201898111969C918923818308C1AD
:10016000923009F407C112962D903C901397EB0141
:100170008A819B811496AD90BD90CD90DC901797AD
:10018000EC80FD800E811F819101281B390BB90184
:1001900037FF04C066277727621B730B6032710537
:1001A0000CF061C0121613066CF537014801062EDB
:1001B00004C096948794779467940A94D2F721E0C8
:1001C00030E040E050E004C0220F331F441F551FB1
:1001D0006A95D2F721503040404050402E213F21B7
:1001E00040235123211531054105510521F021E01E
:1001F00030E040E050E079018A01E628F72808293C
:1002000019293CC0232BD1F1260E371E350146019A
:10021000062E04C096948794779467940A94D2F734
:1002200021E030E040E050E004C0220F331F441FC3
:10023000551F6A95D2F721503040404050402A2146
:100240003B214C215D21211531054105510521F04E
:1002500021E030E040E050E059016A01A628B728CB
:10026000C828D9280BC0821593052CF01C01AA249C
:10027000BB24650103C0EE24FF24870111969C91E5
:10028000D20111968C91981709F445C0992339F041
:10029000A80197012A193B094C095D0906C0A6016E
:1002A00095012E193F09400B510B57FD08C01182D3
:1002B0003382228224833583468357831DC081E0A5
:1002C00081833382228288279927DC01821B930B4A
:1002D000A40BB50B84839583A683B7830DC0220F2F
:1002E000331F441F551F24833583468357838281E0
:1002F000938101979383828324813581468157813D
:10030000DA01C9010197A109B1098F5F9F4FAF4F72
:10031000BF4328F30BC0918333822282EA0CFB1C7B
:100320000C1D1D1DE482F5820683178383E0808304
:10033000248135814681578157FF1AC0C901AA27F8
:1003400097FDA095BA2F81709070A070B0705695EF
:10035000479537952795822B932BA42BB52B848318
:100360009583A683B7838281938101969383828349
:10037000DF0101C0D201CD01CDB7DEB7E2E10C94BF
:10038000781CA0E2B0E0E7ECF1E00C94681C698313
:100390007A838B839C832D833E834F835887E9E048
:1003A000EE2EF12CEC0EFD1ECE010196B7010E943F
:1003B00046068E010F5E1F4FCE010596B8010E94C2
:1003C00046068A8991E089278A8BC701B801AE0168
:1003D000475E5F4F0E9475000E947105A096E6E09F
:1003E0000C94841CA0E2B0E0E8EFF1E00C94681CEF
:1003F00069837A838B839C832D833E834F835887C5
:10040000F9E0EF2EF12CEC0EFD1ECE010196B701A6
:100410000E9446068E010F5E1F4FCE010596B80161
:100420000E944606C701B801AE01475E5F4F0E94B9
:1004300075000E947105A096E6E00C94841CA0E271
:10044000B0E0E5E2F2E00C945C1C69837A838B8374
:100450009C832D833E834F835887CE010196BE0136
:10046000675F7F4F0E944606CE010596BE016F5E14
:100470007F4F0E9446069985923088F089898230A4
:10048000C8F0943019F4823051F404C0843029F457
:10049000923081F487E293E0C6C0923049F420E0C4
:1004A0009A858A89981321E02A87CE010996BBC0D4
:1004B000823049F420E09A858A89981321E02A8BBA
:1004C000CE014196B0C02D843E844F8458886D88FB
:1004D0007E888F88988CEE24FF248701AA24BB2471
:1004E000650140E050E060E070E0E0E0F0E0C10174
:1004F00081709070892BE9F0E60CF71C081D191D1E
:100500009A01AB012A0D3B1D4C1D5D1D80E090E062
:10051000A0E0B0E0E614F7040805190520F481E036
:1005200090E0A0E0B0E0BA01A901480F591F6A1F8E
:100530007B1FAA0CBB1CCC1CDD1C97FE08C081E0F5
:1005400090E0A0E0B0E0A82AB92ACA2ADB2A3196B6
:10055000E032F10549F0660C771C881C991C569412
:10056000479437942794C3CFFA85EA892B893C892D
:100570008B859C85280F391F2E5F3F4F17C0CA01FE
:1005800081709070892B61F016950795F794E79428
:1005900080E090E0A0E0B0E8E82AF92A0A2B1B2BC3
:1005A00076956795579547952F5F3F4F77FDE7CF36
:1005B0000CC0440F551F661F771F17FD4160EE0CDE
:1005C000FF1C001F111F21503040403090E05907A0
:1005D00090E0690790E4790760F32B8F3C8FDB0193
:1005E000CA018F779070A070B07080349105A1051A
:1005F000B10561F447FD0AC0E114F10401051105DC
:1006000029F0405C5F4F6F4F7F4F40781A8EFE1786
:1006100011F081E08A8F4D8F5E8F6F8F78A383E01A
:10062000898FCE0149960E947105A096E2E10C9453
:10063000781CA8E1B0E0EFE1F3E00C94641C69835E
:100640007A838B839C832D833E834F835887B9E0C5
:10065000EB2EF12CEC0EFD1ECE010196B7010E948F
:1006600046068E010F5E1F4FCE010596B8010E940F
:1006700046062985223008F47EC03989323010F4CC
:10068000B8017CC08A859A8989278A87243011F02D
:10069000223031F4231709F06EC067E273E06EC0B8
:1006A000343039F41D861E861F86188A1C861B86E8
:1006B00004C0323021F484E08987B7015FC02B8504
:1006C0003C858B899C89281B390B3C872B87ED84C3
:1006D000FE840F851889AD88BE88CF88D88CEA142F
:1006E000FB040C051D0540F4EE0CFF1C001F111F40
:1006F000215030403C872B8720E030E040E050E044
:1007000080E090E0A0E0B0E460E070E0EA14FB0478
:100710000C051D0540F0282B392B4A2B5B2BEA18C2
:10072000FB080C091D09B695A79597958795EE0CC2
:10073000FF1C001F111F6F5F7F4F6F31710531F775
:10074000DA01C9018F779070A070B0708034910584
:10075000A105B10561F427FD0AC0E114F10401050A
:10076000110529F0205C3F4F4F4F5F4F20782D87B8
:100770003E874F87588BBE01675F7F4FCB010E943A
:1007800071056896EAE00C94801CA8E1B0E0EBECFF
:10079000F3E00C94681C69837A838B839C832D839C
:1007A0003E834F83588789E0E82EF12CEC0EFD1E26
:1007B000CE010196B7010E9446068E010F5E1F4FC3
:1007C000CE010596B8010E9446068985823040F028
:1007D0008989823028F0C701B8010E94BE0601C095
:1007E0008FEF6896E6E00C94841CA8E1B0E0EBEF94
:1007F000F3E00C94681C69837A838B839C832D833C
:100800003E834F83588789E0E82EF12CEC0EFD1EC5
:10081000CE010196B7010E9446068E010F5E1F4F62
:10082000CE010596B8010E9446068985823040F0C7
:100830008989823028F0C701B8010E94BE0601C034
:100840008FEF6896E6E00C94841CA8E1B0E0EBE240
:10085000F4E00C94681C69837A838B839C832D83DA
:100860003E834F83588789E0E82EF12CEC0EFD1E65
:10087000CE010196B7010E9446068E010F5E1F4F02
:10088000CE010596B8010E9446068985823040F067
:100890008989823028F0C701B8010E94BE0601C0D4
:1008A00081E06896E6E00C94841CACE0B0E0EBE5F7
:1008B000F4E00C946C1C69837A838B839C83CE0157
:1008C0000196BE016B5F7F4F0E9446068D8182308C
:1008D00061F1823050F1843021F48E81882351F10E
:1008E0002EC02F81388537FD20C06E812F31310514
:1008F0001CF06623F9F023C08EE190E0821B930B7D
:1009000029853A854B855C8504C056954795379572
:1009100027958A95D2F76623B1F05095409530958A
:1009200021953F4F4F4F5F4F0EC020E030E040E039
:1009300050E009C02FEF3FEF4FEF5FE704C020E02A
:1009400030E040E050E8B901CA012C96E2E00C9496
:10095000881CA8E0B0E0EFEAF4E00C94641C7B0192
:100960008C01611571058105910519F482E0898377
:1009700060C083E089838EE1C82ED12CDC82CB82DB
:10098000ED82FE820F831887C801B7010E942205FD
:10099000FC013197F7FF3BC0222733272E1B3F0B6B
:1009A00057016801022E04C0D694C794B794A79447
:1009B0000A94D2F740E050E060E070E081E090E01F
:1009C000A0E0B0E004C0880F991FAA1FBB1F2A95A2
:1009D000D2F70197A109B1098E219F21A023B1234C
:1009E0000097A105B10521F041E050E060E070E022
:1009F0004A295B296C297D294D835E836F83788723
:100A00008EE190E08E1B9F0B9C838B8312C03097EE
:100A100081F00E2E04C0EE0CFF1C001F111F0A9463
:100A2000D2F7ED82FE820F831887CE1ADF0ADC82AE
:100A3000CB821A82CE0101960E9471052896EAE0C7
:100A40000C94801CEF92FF920F931F937B018C01FB
:100A500080E0E81680E0F80681E0080780E01807EB
:100A600088F48FEFE816F1040105110531F028F044
:100A700088E090E0A0E0B0E017C080E090E0A0E067
:100A8000B0E012C080E0E81680E0F80680E00807D9
:100A900081E0180728F088E190E0A0E0B0E004C011
:100AA00080E190E0A0E0B0E020E230E040E050E003
:100AB000281B390B4A0B5B0B04C016950795F7945E
:100AC000E7948A95D2F7F701E15DFC4F8081281BFE
:100AD000310941095109C9011F910F91FF90EF9010
:100AE0000895DF92EF92FF920F931F93FC01E48031
:100AF000F58006811781D1808081823048F480E0C2
:100B000090E0A0E1B0E0E82AF92A0A2B1B2BA5C04F
:100B1000843009F49FC0823021F4EE24FF24870141
:100B200005C0E114F1040105110519F4E0E0F0E05D
:100B300096C0628173819FEF623879070CF05BC0C9
:100B400022E83FEF261B370B2A3131052CF020E03D
:100B500030E040E050E02AC0B801A701022E04C0F6
:100B600076956795579547950A94D2F781E090E07E
:100B7000A0E0B0E004C0880F991FAA1FBB1F2A95F0
:100B8000D2F70197A109B1098E219F21A023B1239A
:100B90000097A105B10521F081E090E0A0E0B0E070
:100BA0009A01AB01282B392B4A2B5B2BDA01C901A7
:100BB0008F779070A070B07080349105A105B10559
:100BC00039F427FF09C0205C3F4F4F4F5F4F04C0EF
:100BD000215C3F4F4F4F5F4FE0E0F0E02030A0E05E
:100BE0003A07A0E04A07A0E45A0710F0E1E0F0E07D
:100BF00079018A0127C06038710564F5FB01E1586D
:100C0000FF4FD801C7018F779070A070B07080340B
:100C10009105A105B10539F4E7FE0DC080E490E02F
:100C2000A0E0B0E004C08FE390E0A0E0B0E0E80E08
:100C3000F91E0A1F1B1F17FF05C016950795F7948D
:100C4000E794319687E016950795F794E7948A958F
:100C5000D1F705C0EE24FF248701EFEFF0E06E2FFF
:100C6000679566276795902F9F77D794DD24D79453
:100C70008E2F8695492F462B582F5D29B701CA0123
:100C80001F910F91FF90EF90DF900895FC01DB0121
:100C9000408151812281622F6F7770E0221F2227CD
:100CA000221F9381892F880F822B282F30E0991FD4
:100CB0009927991F11969C93119721153105A9F534
:100CC000411551056105710511F482E037C082E8D4
:100CD0009FEF13969C938E9312979A01AB0167E056
:100CE000220F331F441F551F6A95D1F783E08C9361
:100CF0000DC0220F331F441F551F12968D919C91DA
:100D00001397019713969C938E931297203080E04F
:100D1000380780E0480780E4580758F314962D936D
:100D20003D934D935C93179708952F3F310579F4C8
:100D3000411551056105710519F484E08C930895FE
:100D400064FF03C081E08C9312C01C9210C02F5727
:100D5000304013963C932E93129783E08C9387E058
:100D6000440F551F661F771F8A95D1F7706414963C
:100D70004D935D936D937C93179708951F93DC01BA
:100D8000FB019C91923008F447C08081823008F4C6
:100D900043C0943051F411961C91843099F58181AF
:100DA000682F70E0611B71093FC0843021F09230E0
:100DB00031F48230B9F18181882389F12DC01196F7
:100DC0001C9111978230F1F081811817D9F4129695
:100DD0002D913C911397828193818217930794F010
:100DE00028173907BCF014968D919D910D90BC91F8
:100DF000A02D2481358146815781281739074A075C
:100E00005B0718F4112341F00AC082179307A40767
:100E1000B50740F4112319F061E070E005C06FEFF1
:100E20007FEF02C060E070E0CB011F910895DF9377
:100E3000CF9300D0CDB7DEB79A838983E981FA8159
:100E400080818823B1F4A0E4B0E0E0E4F0E08081A8
:100E50008D7F8C93A0E4B0E0E0E4F0E080818B7FB4
:100E60008C93AAE2B0E0EAE2F0E080818B7F8C9381
:100E70006BC0E981FA8180818130B1F4A0E4B0E0F7
:100E8000E0E4F0E0808182608C93A0E4B0E0E0E4F4
:100E9000F0E080818B7F8C93AAE2B0E0EAE2F0E0A0
:100EA00080818B7F8C9350C0E981FA818081823070
:100EB000B1F4A0E4B0E0E0E4F0E080818D7F8C93B9
:100EC000A0E4B0E0E0E4F0E0808184608C93AAE2EA
:100ED000B0E0EAE2F0E080818B7F8C9335C0E9815D
:100EE000FA8180818330B1F4A0E4B0E0E0E4F0E086
:100EF000808182608C93A0E4B0E0E0E4F0E0808147
:100F000084608C93AAE2B0E0EAE2F0E080818B7F1B
:100F10008C931AC0E981FA8180818430A9F4A0E41D
:100F2000B0E0E0E4F0E0808182608C93A0E4B0E087
:100F3000E0E4F0E0808184608C93AAE2B0E0EAE231
:100F4000F0E0808184608C93E981FA81818188233B
:100F500079F4A0E4B0E0E0E4F0E080818F7E8C934F
:100F6000A0E4B0E0E0E4F0E080818F7D8C9327C0C6
:100F7000E981FA818181813079F4A0E4B0E0E0E494
:100F8000F0E080818F7E8C93A0E4B0E0E0E4F0E0BC
:100F9000808180628C9313C0E981FA8181818230E3
:100FA00071F4A0E4B0E0E0E4F0E0808180618C9333
:100FB000A0E4B0E0E0E4F0E0808180628C93E9811D
:100FC000FA818281882341F4A0E4B0E0E0E4F0E01B
:100FD0008081877F8C930CC0E981FA818281813086
:100FE00039F4A0E4B0E0E0E4F0E0808188608C9324
:100FF000E981FA8183818823B1F4AAE2B0E0EAE2D0
:10100000F0E080818F778C93AAE2B0E0EAE2F0E032
:1010100080818F7D8C93AAE2B0E0EAE2F0E08081EB
:101020008F7B8C931AC0E981FA8183818130A9F486
:10103000AAE2B0E0EAE2F0E0808180688C93AAE264
:10104000B0E0EAE2F0E0808180628C93AAE2B0E056
:10105000EAE2F0E0808180648C93E981FA81878103
:10106000813041F4A0E4B0E0E0E4F0E080818F7BE7
:101070008C930CC0E981FA818781882339F4A0E43C
:10108000B0E0E0E4F0E0808180648C93E981FA8153
:1010900080858130C1F4ABE2B0E0EBE2F0E080812A
:1010A00082608C93A9E2B0E0E981FA818481958124
:1010B0008C93A0E4B0E0E981FA8184819581892F45
:1010C00099278C931DC0E981FA8180858823C1F41A
:1010D000ABE2B0E0EBE2F0E080818D7F8C93A9E29F
:1010E000B0E0E981FA8186818C93A0E4B0E0E981E7
:1010F000FA818681882F90E0892F990F990B8C9324
:101100000F900F90CF91DF910895DF93CF9300D090
:10111000CDB7DEB79A838983AAE2B0E0EAE2F0E0D5
:10112000808180618C93AAE2B0E0EAE2F0E0808105
:1011300088608C930F900F90CF91DF910895DF938B
:10114000CF9300D0CDB7DEB79A838983AAE2B0E00F
:10115000EAE2F0E080818F7E8C93AAE2B0E0EAE2DE
:10116000F0E08081877F8C930F900F90CF91DF917B
:101170000895DF93CF930F92CDB7DEB78983EBE26B
:10118000F0E08081829586958770882F90E081704D
:1011900090700097A1F3ECE2F0E0898180830F90DA
:1011A000CF91DF910895DF93CF930F92CDB7DEB744
:1011B000EBE2F0E08081881F8827881F8130C1F72B
:1011C000ECE2F0E080818983ABE2B0E0EBE2F0E0BA
:1011D00080818F778C9389810F90CF91DF910895D3
:1011E000DF93CF9300D0CDB7DEB79A8389830BC04E
:1011F000E981FA81208189819A8101969A83898384
:10120000822F0E94B908E981FA818081882381F7C1
:101210000F900F90CF91DF910895DF93CF930F92AE
:10122000CDB7DEB7ECE2F0E080818983ABE2B0E0DD
:10123000EBE2F0E080818F778C930F90CF91DF917C
:101240000895DF93CF93CDB7DEB7AFE5B0E0EFE51C
:10125000F0E0808180688C93CF91DF910895DF93D7
:10126000CF93CDB7DEB7AFE5B0E0EFE5F0E080813A
:101270008F778C93CF91DF910895DF93CF9300D038
:1012800000D0CDB7DEB79A838983E981FA81808166
:10129000282F30E03C832B838B819C81813091050A
:1012A00009F46CC02B813C812230310509F4C7C0A0
:1012B0008B819C81009709F0F7C0E981FA818181D7
:1012C000882379F4A5E5B0E0E5E5F0E080818C7F46
:1012D0008C93ABE5B0E0EBE5F0E0808180648C932B
:1012E0003DC0E981FA818181813081F4A5E5B0E0DA
:1012F000E5E5F0E080818C7F81608C93ABE5B0E028
:10130000EBE5F0E0808180648C9328C0E981FA816C
:101310008181823081F4A5E5B0E0E5E5F0E08081EF
:101320008C7F82608C93ABE5B0E0EBE5F0E08081F0
:1013300080648C9313C0E981FA818181833071F4D8
:10134000A5E5B0E0E5E5F0E0808183608C93ABE556
:10135000B0E0EBE5F0E0808180648C93E981FA8174
:1013600082819381009709F49FC0E981FA8182818B
:101370009381909342048093410496C0E981FA815D
:101380008181882379F4A5E5B0E0E5E5F0E080818E
:10139000837F8C93ABE5B0E0EBE5F0E08081806883
:1013A0008C933DC0E981FA818181813081F4A5E58A
:1013B000B0E0E5E5F0E08081837F84608C93ABE56D
:1013C000B0E0EBE5F0E0808180688C9328C0E98193
:1013D000FA818181823081F4A5E5B0E0E5E5F0E0B5
:1013E0008081837F88608C93ABE5B0E0EBE5F0E033
:1013F000808180688C9313C0E981FA818181833078
:1014000071F4A5E5B0E0E5E5F0E080818C608C93B7
:10141000ABE5B0E0EBE5F0E0808180688C93E9819A
:10142000FA8182819381009709F43EC0E981FA81B3
:1014300082819381909344048093430435C0E98171
:10144000FA818181823079F4A4E5B0E0E4E5F0E04E
:1014500080818F7B8C93ABE5B0E0EBE5F0E08081A1
:1014600080628C9313C0E981FA818181833071F4A9
:10147000A4E5B0E0E4E5F0E0808180648C93ABE526
:10148000B0E0EBE5F0E0808180628C93E981FA8145
:1014900082819381009741F0E981FA818281938171
:1014A00090934604809345040F900F900F900F90F7
:1014B000CF91DF910895DF93CF9300D000D0CDB7C7
:1014C000DEB79A838983E981FA818081282F30E011
:1014D0003C832B838B819C818130910589F02B810A
:1014E0003C8122303105A1F08B819C810097B9F4B9
:1014F000ABE5B0E0EBE5F0E080818F7B8C930FC033
:10150000ABE5B0E0EBE5F0E080818F778C9307C02E
:10151000ABE5B0E0EBE5F0E080818F7D8C930F9040
:101520000F900F900F90CF91DF9108951F920F921F
:101530000FB60F9211242F933F934F935F936F93A6
:101540007F938F939F93AF93BF93EF93FF93DF931B
:10155000CF93CDB7DEB780914104909142040097BC
:1015600029F0E0914104F09142040995CF91DF9177
:10157000FF91EF91BF91AF919F918F917F916F916B
:101580005F914F913F912F910F900FBE0F901F9041
:1015900018951F920F920FB60F9211242F933F931D
:1015A0004F935F936F937F938F939F93AF93BF936B
:1015B000EF93FF93DF93CF93CDB7DEB780914304D2
:1015C00090914404009729F0E0914304F091440481
:1015D0000995CF91DF91FF91EF91BF91AF919F91CD
:1015E0008F917F916F915F914F913F912F910F90CC
:1015F0000FBE0F901F9018951F920F920FB60F926B
:1016000011242F933F934F935F936F937F938F9307
:101610009F93AF93BF93EF93FF93DF93CF93CDB798
:10162000DEB78091450490914604009729F0E0913F
:101630004504F09146040995CF91DF91FF91EF9118
:10164000BF91AF919F918F917F916F915F914F91DA
:101650003F912F910F900FBE0F901F901895DF9321
:10166000CF93CDB7DEB727970FB6F894DEBF0FBE86
:10167000CDBF89836A834B838B81882309F06FC038
:101680008981282F30E03F832E838E819F81813096
:10169000910549F12E813F81223031052CF48E8154
:1016A0009F81009761F0C9C02E813F8122303105B2
:1016B00071F18E819F8183309105E9F1BEC0AAE36B
:1016C000B0E0EAE3F0E040818A81282F30E081E059
:1016D00090E0022E02C0880F991F0A94E2F78095CD
:1016E00084238C93AAC0A7E3B0E0E7E3F0E0408155
:1016F0008A81282F30E081E090E0022E02C0880F1E
:10170000991F0A94E2F7809584238C9396C0A4E3F2
:10171000B0E0E4E3F0E040818A81282F30E081E00E
:1017200090E0022E02C0880F991F0A94E2F780957C
:1017300084238C9382C0A1E3B0E0E1E3F0E0408138
:101740008A81282F30E081E090E0022E02C0880FCD
:10175000991F0A94E2F7809584238C936EC08B8145
:10176000813009F06AC08981282F30E03D832C83C5
:101770008C819D818130910541F12C813D81223008
:1017800031052CF48C819D81009761F056C02C812D
:101790003D812230310561F18C819D81833091053D
:1017A000D1F14BC0AAE3B0E0EAE3F0E040818A81E6
:1017B000282F30E081E090E0022E02C0880F991FB0
:1017C0000A94E2F7842B8C9338C0A7E3B0E0E7E3F8
:1017D000F0E040818A81282F30E081E090E0022E05
:1017E00002C0880F991F0A94E2F7842B8C9325C0BE
:1017F000A4E3B0E0E4E3F0E040818A81282F30E008
:1018000081E090E0022E02C0880F991F0A94E2F74F
:10181000842B8C9312C0A1E3B0E0E1E3F0E04081BF
:101820008A81282F30E081E090E0022E02C0880FEC
:10183000991F0A94E2F7842B8C9327960FB6F8949D
:10184000DEBF0FBECDBFCF91DF910895DF93CF9361
:1018500000D000D0CDB7DEB789836A838981282F75
:1018600030E03C832B838B819C8181309105D1F0CA
:101870002B813C81223031052CF48B819C81009797
:1018800061F01EC02B813C812230310581F08B81BB
:101890009C818330910581F013C0EAE3F0E08A81F6
:1018A00080830EC0E7E3F0E08A81808309C0E4E32F
:1018B000F0E08A81808304C0E1E3F0E08A818083E4
:1018C0000F900F900F900F90CF91DF910895DF93BD
:1018D000CF93CDB7DEB727970FB6F894DEBF0FBE14
:1018E000CDBF89836A834B838B81813009F06BC0C4
:1018F0008981282F30E03F832E838E819F81813024
:10190000910541F12E813F81223031052CF48E81E9
:101910009F81009761F0C9C02E813F81223031053F
:1019200061F18E819F8183309105D1F1BEC0ABE31F
:10193000B0E0EBE3F0E040818A81282F30E081E0E5
:1019400090E0022E02C0880F991F0A94E2F7842BC0
:101950008C93ABC0A8E3B0E0E8E3F0E040818A817B
:10196000282F30E081E090E0022E02C0880F991FFE
:101970000A94E2F7842B8C9398C0A5E3B0E0E5E3EA
:10198000F0E040818A81282F30E081E090E0022E53
:1019900002C0880F991F0A94E2F7842B8C9385C0AC
:1019A000A2E3B0E0E2E3F0E040818A81282F30E05A
:1019B00081E090E0022E02C0880F991F0A94E2F79E
:1019C000842B8C9372C08B81882309F06EC089812F
:1019D000282F30E03D832C838C819D8181309105BF
:1019E00049F12C813D81223031052CF48C819D817F
:1019F000009761F05AC02C813D812230310571F190
:101A00008C819D8183309105E9F14FC0ABE3B0E05B
:101A1000EBE3F0E040818A81282F30E081E090E024
:101A2000022E02C0880F991F0A94E2F78095842342
:101A30008C933BC0A8E3B0E0E8E3F0E040818A810A
:101A4000282F30E081E090E0022E02C0880F991F1D
:101A50000A94E2F7809584238C9327C0A5E3B0E035
:101A6000E5E3F0E040818A81282F30E081E090E0DA
:101A7000022E02C0880F991F0A94E2F780958423F2
:101A80008C9313C0A2E3B0E0E2E3F0E040818A81EE
:101A9000282F30E081E090E0022E02C0880F991FCD
:101AA0000A94E2F7809584238C9327960FB6F894D6
:101AB000DEBF0FBECDBFCF91DF910895DF93CF93EF
:101AC00000D000D0CDB7DEB789836A838981282F03
:101AD00030E03C832B838B819C8181309105D1F058
:101AE0002B813C81223031052CF48B819C81009725
:101AF00061F01EC02B813C812230310581F08B8149
:101B00009C818330910581F013C0EBE3F0E08A8182
:101B100080830EC0E8E3F0E08A81808309C0E5E3BA
:101B2000F0E08A81808304C0E2E3F0E08A81808370
:101B30000F900F900F900F90CF91DF910895DF934A
:101B4000CF9300D000D0CDB7DEB789836A83898177
:101B5000282F30E03C832B838B819C818130910541
:101B600041F12B813C81223031052CF48B819C8109
:101B7000009761F056C02B813C812230310561F124
:101B80008B819C8183309105D1F14BC0ABE3B0E0F8
:101B9000EBE3F0E040818A81282F30E081E090E0A3
:101BA000022E02C0880F991F0A94E2F784278C93B3
:101BB00038C0A8E3B0E0E8E3F0E040818A81282F54
:101BC00030E081E090E0022E02C0880F991F0A9455
:101BD000E2F784278C9325C0A5E3B0E0E5E3F0E0CD
:101BE00040818A81282F30E081E090E0022E02C0FF
:101BF000880F991F0A94E2F784278C9312C0A2E3FE
:101C0000B0E0E2E3F0E040818A81282F30E081E01B
:101C100090E0022E02C0880F991F0A94E2F78427F1
:101C20008C930F900F900F900F90CF91DF910895AC
:101C3000DF93CF9300D000D00F92CDB7DEB78A8369
:101C40006B838FEF89838A81282F30E03D832C833B
:101C50004C815D814130510541F18C819D81823003
:101C6000910534F42C813D812115310561F052C07C
:101C70004C815D814230510551F18C819D818330D1
:101C80009105B9F147C0E9E3F0E08081282F30E009
:101C90008B81882F90E0A90102C0559547958A95C0
:101CA000E2F7CA018170898335C0E6E3F0E0808104
:101CB000282F30E08B81882F90E0A90102C0559534
:101CC00047958A95E2F7CA018170898323C0E3E3CF
:101CD000F0E08081282F30E08B81882F90E0A901EF
:101CE00002C0559547958A95E2F7CA0181708983AC
:101CF00011C0E0E3F0E08081282F30E08B81882F55
:101D000090E0A90102C0559547958A95E2F7CA016E
:101D10008170898389810F900F900F900F900F90A1
:101D2000CF91DF910895DF93CF93CDB7DEB7A7E2D0
:101D3000B0E0E7E2F0E0808180648C93A7E2B0E05D
:101D4000E7E2F0E080818F778C93A7E2B0E0E7E2F2
:101D5000F0E080818F7D8C93A6E2B0E0E6E2F0E0D7
:101D600080818F7D8C93A6E2B0E0E6E2F0E0808196
:101D700084608C93A6E2B0E0E6E2F0E080818260CD
:101D80008C93A6E2B0E0E6E2F0E080818E7F8C9357
:101D9000CF91DF910895DF93CF930F92CDB7DEB748
:101DA000898389818F718983A7E2B0E0E7E2F0E05F
:101DB0008081807E8C93A7E2B0E0E7E2F0E0908142
:101DC0008981892B8C93A6E2B0E0E6E2F0E0808185
:101DD00080688C93A6E2B0E0E6E2F0E08081806467
:101DE0008C93E6E2F0E0808182958F70882F90E0FE
:101DF000817090700097A9F3A6E2B0E0E6E2F0E00F
:101E0000808180618C93E4E2F0E0808191810F9089
:101E1000CF91DF910895DF93CF93CDB7DEB70E94C6
:101E2000930ECF91DF910895DF93CF93CDB7DEB7B7
:101E30002C970FB6F894DEBF0FBECDBF80E00E9496
:101E4000CB0ECC01A0E0B0E089879A87AB87BC8736
:101E500089859A85AB85BC8528E833E140E050E070
:101E6000BC01CD010E94001CDC01CB01072E7AE0F1
:101E7000B695A795979587957A95D1F7702D8D830F
:101E80009E83AF83B8878D819E81AF81B8852AE01C
:101E900030E040E050E0BC01CD010E941F1CDA019F
:101EA000C90189839A83AB83BC8389819A81AB8181
:101EB000BC81BC01CD012C960FB6F894DEBF0FBEDD
:101EC000CDBFCF91DF910895DF93CF93CDB7DEB72C
:101ED0000E94930ECF91DF910895DF93CF9300D0AE
:101EE000CDB7DEB781E00E94CB0E9A8389838981CA
:101EF0009A810F900F90CF91DF9108950F931F93C8
:101F0000DF93CF93CDB7DEB7C654D0400FB6F89469
:101F1000DEBF0FBECDBF83E064E041E00E942F0B27
:101F200083E065E041E00E942F0B83E066E041E042
:101F30000E942F0B82E061E00E94260CFE01ED5B07
:101F4000FF4F80E090E0A8E4B2E480839183A28315
:101F5000B3838E01015C1F4FFE01ED5BFF4F60817B
:101F600071818281938120E030E04AEF54E40E9445
:101F70001F02DC01CB01F80180839183A283B3832C
:101F8000FE01FF96608171818281938120E030E0C3
:101F900040E85FE30E94250488232CF481E090E070
:101FA0009EAF8DAF46C0FE01FF9660817181828138
:101FB000938120E03FEF4FE757E40E94C5031816D6
:101FC00064F5FE01ED5BFF4F608171818281938139
:101FD00020E030E040E251E40E941F02DC01CB012E
:101FE000BC01CD010E944900DC01CB019EAF8DAF49
:101FF0000FC088EC90E09CAF8BAF8BAD9CAD019790
:10200000F1F79CAF8BAF8DAD9EAD01979EAF8DAFBD
:102010008DAD9EAD009769F716C0FE01FF966081F9
:102020007181828193810E944900DC01CB019EAFC6
:102030008DAF8DAD9EAD9AAF89AF89AD9AAD019749
:10204000F1F79AAF89AF88E30E94031280E090E035
:10205000A0E8BFE38DAB9EABAFABB8AF6DA97EA9D7
:102060008FA998AD20E030E04AEF54E40E941F02AF
:10207000DC01CB0189AB9AABABABBCAB69A97AA94C
:102080008BA99CA920E030E040E85FE30E94250492
:1020900088232CF481E090E098AB8FA73FC069A91A
:1020A0007AA98BA99CA920E03FEF4FE757E40E9453
:1020B000C50318164CF56DA97EA98FA998AD20E02F
:1020C00030E040E251E40E941F02DC01CB01BC0180
:1020D000CD010E944900DC01CB0198AB8FA70FC056
:1020E00088EC90E09EA78DA78DA59EA50197F1F79E
:1020F0009EA78DA78FA598A9019798AB8FA78FA5AD
:1021000098A9009769F714C069A97AA98BA99CA915
:102110000E944900DC01CB0198AB8FA78FA598A93D
:102120009CA78BA78BA59CA50197F1F79CA78BA7D4
:102130008FE00E94031280E090E0A0E8BFE38FA34D
:1021400098A7A9A7BAA76FA178A589A59AA520E005
:1021500030E04AEF54E40E941F02DC01CB018BA364
:102160009CA3ADA3BEA36BA17CA18DA19EA120E0E9
:1021700030E040E85FE30E94250488232CF481E0EE
:1021800090E09AA389A33FC06BA17CA18DA19EA1E1
:1021900020E03FEF4FE757E40E94C50318164CF5C7
:1021A0006FA178A589A59AA520E030E040E251E42E
:1021B0000E941F02DC01CB01BC01CD010E9449003D
:1021C000DC01CB019AA389A30FC088EC90E098A30F
:1021D0008F8F8F8D98A10197F1F798A38F8F89A189
:1021E0009AA101979AA389A389A19AA1009769F757
:1021F00014C06BA17CA18DA19EA10E944900DC01AD
:10220000CB019AA389A389A19AA19E8F8D8F8D8DD1
:102210009E8D0197F1F79E8F8D8F81E00E940312B2
:1022200080E090E0A0E4B0E4898F9A8FAB8FBC8F00
:10223000698D7A8D8B8D9C8D20E030E04AEF54E4DF
:102240000E941F02DC01CB018D8B9E8BAF8BB88F60
:102250006D897E898F89988D20E030E040E85FE3CA
:102260000E94250488232CF481E090E09C8B8B8BCA
:102270003FC06D897E898F89988D20E03FEF4FE7C1
:1022800057E40E94C50318164CF5698D7A8D8B8D25
:102290009C8D20E030E040E251E40E941F02DC010E
:1022A000CB01BC01CD010E944900DC01CB019C8B1C
:1022B0008B8B0FC088EC90E09A8B898B89899A89E7
:1022C0000197F1F79A8B898B8B899C8901979C8B5D
:1022D0008B8B8B899C89009769F714C06D897E89E7
:1022E0008F89988D0E944900DC01CB019C8B8B8BE0
:1022F0008B899C89988B8F878F8598890197F1F7B7
:10230000988B8F8786E00E94031280E090E0A0E81F
:10231000BFE38B879C87AD87BE876B857C858D856A
:102320009E8520E030E04AEF54E40E941F02DC0169
:10233000CB018F839887A987BA876F817885898534
:102340009A8520E030E040E85FE30E94250488237E
:102350002CF481E090E09E838D833FC06F8178856F
:1023600089859A8520E03FEF4FE757E40E94C50337
:1023700018164CF56B857C858D859E8520E030E0B8
:1023800040E251E40E941F02DC01CB01BC01CD01FF
:102390000E944900DC01CB019E838D830FC088EC35
:1023A00090E09C838B838B819C810197F1F79C83C8
:1023B0008B838D819E8101979E838D838D819E81EC
:1023C000009769F714C06F81788589859A850E9486
:1023D0004900DC01CB019E838D838D819E819A8390
:1023E000898389819A810197F1F79A838983CA5BEE
:1023F000DF4F0FB6F894DEBF0FBECDBFCF91DF9198
:102400001F910F910895DF93CF93CDB7DEB76D97EE
:102410000FB6F894DEBF0FBECDBF8D8F83E064E0B2
:1024200040E00E94670C83E065E040E00E94670C9A
:1024300082E06D8D0E945E0D83E066E041E00E94C7
:10244000670C80E090E0A0E8BFE3898F9A8FAB8FA4
:10245000BC8F698D7A8D8B8D9C8D20E030E04AEFAA
:1024600054E40E941F02DC01CB018D8B9E8BAF8B4D
:10247000B88F6D897E898F89988D20E030E040E8A3
:102480005FE30E94250488232CF481E090E09C8B7C
:102490008B8B3FC06D897E898F89988D20E03FEFBF
:1024A0004FE757E40E94C50318164CF5698D7A8DE5
:1024B0008B8D9C8D20E030E040E251E40E941F02B1
:1024C000DC01CB01BC01CD010E944900DC01CB0144
:1024D0009C8B8B8B0FC088EC90E09A8B898B8989C1
:1024E0009A890197F1F79A8B898B8B899C8901973F
:1024F0009C8B8B8B8B899C89009769F714C06D89A5
:102500007E898F89988D0E944900DC01CB019C8BCC
:102510008B8B8B899C89988B8F878F859889019766
:10252000F1F7988B8F8783E066E040E00E94670CAC
:1025300080E090E0A0E8BFE38B879C87AD87BE87F3
:102540006B857C858D859E8520E030E04AEF54E4E4
:102550000E941F02DC01CB018F839887A987BA876D
:102560006F81788589859A8520E030E040E85FE3D7
:102570000E94250488232CF481E090E09E838D83C3
:102580003FC06F81788589859A8520E03FEF4FE7CE
:1025900057E40E94C50318164CF56B857C858D8524
:1025A0009E8520E030E040E251E40E941F02DC0101
:1025B000CB01BC01CD010E944900DC01CB019E830F
:1025C0008D830FC088EC90E09C838B838B819C81F2
:1025D0000197F1F79C838B838D819E8101979E8368
:1025E0008D838D819E81009769F714C06F817885F6
:1025F00089859A850E944900DC01CB019E838D83E9
:102600008D819E819A83898389819A810197F1F7CF
:102610009A8389836D960FB6F894DEBF0FBECDBF47
:10262000CF91DF910895DF93CF93CDB7DEB76D974C
:102630000FB6F894DEBF0FBECDBF8D8F83E064E090
:1026400041E00E94670C83E065E040E00E94670C77
:1026500082E06D8D0E945E0D83E066E041E00E94A5
:10266000670C80E090E0A0E8BFE3898F9A8FAB8F82
:10267000BC8F698D7A8D8B8D9C8D20E030E04AEF88
:1026800054E40E941F02DC01CB018D8B9E8BAF8B2B
:10269000B88F6D897E898F89988D20E030E040E881
:1026A0005FE30E94250488232CF481E090E09C8B5A
:1026B0008B8B3FC06D897E898F89988D20E03FEF9D
:1026C0004FE757E40E94C50318164CF5698D7A8DC3
:1026D0008B8D9C8D20E030E040E251E40E941F028F
:1026E000DC01CB01BC01CD010E944900DC01CB0122
:1026F0009C8B8B8B0FC088EC90E09A8B898B89899F
:102700009A890197F1F79A8B898B8B899C8901971C
:102710009C8B8B8B8B899C89009769F714C06D8982
:102720007E898F89988D0E944900DC01CB019C8BAA
:102730008B8B8B899C89988B8F878F859889019744
:10274000F1F7988B8F8783E066E040E00E94670C8A
:1027500080E090E0A0E8BFE38B879C87AD87BE87D1
:102760006B857C858D859E8520E030E04AEF54E4C2
:102770000E941F02DC01CB018F839887A987BA874B
:102780006F81788589859A8520E030E040E85FE3B5
:102790000E94250488232CF481E090E09E838D83A1
:1027A0003FC06F81788589859A8520E03FEF4FE7AC
:1027B00057E40E94C50318164CF56B857C858D8502
:1027C0009E8520E030E040E251E40E941F02DC01DF
:1027D000CB01BC01CD010E944900DC01CB019E83ED
:1027E0008D830FC088EC90E09C838B838B819C81D0
:1027F0000197F1F79C838B838D819E8101979E8346
:102800008D838D819E81009769F714C06F817885D3
:1028100089859A850E944900DC01CB019E838D83C6
:102820008D819E819A83898389819A810197F1F7AD
:102830009A8389836D960FB6F894DEBF0FBECDBF25
:10284000CF91DF910895DF93CF9300D0CDB7DEB75E
:102850009A8389830AC0E981FA8180810E941313D7
:1028600089819A8101969A838983E981FA8180819D
:10287000882389F70F900F90CF91DF910895DF9310
:10288000CF9300D000D0CDB7DEB789836A8389812A
:10289000282F30E03C832B838B819C81009731F083
:1028A0002B813C812130310531F009C08A8180586B
:1028B0000E94031204C08A8180540E9403120F9068
:1028C0000F900F900F90CF91DF910895DF93CF93EA
:1028D000CDB7DEB781E00E940312CF91DF9108955A
:1028E000DF93CF93CDB7DEB72C970FB6F894DEBF4A
:1028F0000FBECDBF69877A878B879C8781E090E088
:10290000A0E0B0E08D839E83AF83B8873EC0898509
:102910009A85AB85BC852AE030E040E050E0BC0100
:10292000CD010E94411CDC01CB0189839A83AB83DA
:10293000BC838D819E81AF81B8852AE030E040E084
:1029400050E0BC01CD010E94001C9B01AC018981BB
:102950009A81AB81BC81820F931FA41FB51F8D8309
:102960009E83AF83B88789859A85AB85BC852AE02D
:1029700030E040E050E0BC01CD010E94411CDA0192
:10298000C90189879A87AB87BC8789859A85AB857A
:10299000BC850097A105B10509F0B9CF8D819E8155
:1029A000AF81B885BC01CD012C960FB6F894DEBF7F
:1029B0000FBECDBFCF91DF910895DF93CF93CDB7F9
:1029C000DEB728970FB6F894DEBF0FBECDBF6D837C
:1029D0007E838F8398878D819E81AF81B885BB234D
:1029E00094F48DE20E9413138D819E81AF81B8858E
:1029F000B095A095909581959F4FAF4FBF4F8D8318
:102A00009E83AF83B8878D819E81AF81B885009703
:102A1000A105B10521F480E30E9413133BC08D8111
:102A20009E81AF81B885BC01CD010E947014DC018C
:102A3000CB0189839A83AB83BC8323C089819A812C
:102A4000AB81BC812AE030E040E050E0BC01CD0128
:102A50000E94411CDC01CB01805D0E94131389811F
:102A60009A81AB81BC812AE030E040E050E0BC01BB
:102A7000CD010E94411CDA01C90189839A83AB838D
:102A8000BC8389819A81AB81BC8181309105A1058C
:102A9000B105A1F628960FB6F894DEBF0FBECDBFE4
:102AA000CF91DF910895DF93CF93CDB7DEB728970D
:102AB0000FB6F894DEBF0FBECDBF69837A838B83D8
:102AC0009C832D833E834F8358878D819E81AF8168
:102AD000B8850197A109B1098D839E83AF83B8871B
:102AE00089819A81AB81BC8181309105A105B105B5
:102AF00029F48D8180580E9403120DC089819A812A
:102B0000AB81BC8182309105A105B10521F48D8195
:102B100080540E94031228960FB6F894DEBF0FBEB1
:102B2000CDBFCF91DF9108950F931F93DF93CF9384
:102B3000CDB7DEB729970FB6F894DEBF0FBECDBF75
:102B400089834A835B836C837D830E831F832887FD
:102B500039878A819B81AC81BD812E813F814885E7
:102B60005985BC01CD010E94531589810E94131320
:102B700029960FB6F894DEBF0FBECDBFCF91DF917F
:102B80001F910F9108950F931F93DF93CF93CDB7AC
:102B9000DEB72A970FB6F894DEBF0FBECDBF9A837B
:102BA00089834B835C836D837E830F83188729879A
:102BB0003A878B819C81AD81BE812F813885498583
:102BC0005A85BC01CD010E94531589819A810E94CA
:102BD00023142A960FB6F894DEBF0FBECDBFCF9157
:102BE000DF911F910F910895EF92FF920F931F9322
:102BF000DF93CF93CDB7DEB72C970FB6F894DEBF37
:102C00000FBECDBF69837A838B839C832D833E83E4
:102C10004F835887E986FA860B871C878D819E81B2
:102C2000AF81B88529853A854B855C85BC01CD018E
:102C30000E94531589819A81AB81BC81BC01CD0171
:102C40000E94DD142C960FB6F894DEBF0FBECDBFE8
:102C5000CF91DF911F910F91FF90EF900895DF9337
:102C6000CF93CDB7DEB7E7E3F0E08FE08083E8E312
:102C7000F0E08FEF8083CF91DF910895DF93CF93C2
:102C8000CDB7DEB762970FB6F894DEBF0FBECDBFEB
:102C9000198A188AB9C081E0688940E00E94670CEF
:102CA00084E08F87A5C081E06F850E94180E88237D
:102CB00009F09BC080E090E0A0E2B1E48B879C87A4
:102CC000AD87BE876B857C858D859E8520E030E055
:102CD0004AEF54E40E941F02DC01CB018F839887E6
:102CE000A987BA876F81788589859A8520E030E049
:102CF00040E85FE30E94250488232CF481E090E003
:102D00009E838D833FC06F81788589859A8520E079
:102D10003FEF4FE757E40E94C50318164CF56B854B
:102D20007C858D859E8520E030E040E251E40E9464
:102D30001F02DC01CB01BC01CD010E944900DC0176
:102D4000CB019E838D830FC088EC90E09C838B83A6
:102D50008B819C810197F1F79C838B838D819E8170
:102D600001979E838D838D819E81009769F714C0A2
:102D70006F81788589859A850E944900DC01CB01A5
:102D80009E838D838D819E819A83898389819A8197
:102D90000197F1F79A83898381E06F850E94180E6D
:102DA000882319F581E06F850E94180E8823D1F3DE
:102DB0008889482F50E08F85882F90E09C0124500F
:102DC0003040CA01880F991F880F991F820F931FE7
:102DD000FC01E15DFB4F8081898B81E0688941E0E6
:102DE0000E94670C89898A8B15C08F858F5F8F87BA
:102DF0008F85883008F457CF81E0688941E00E94D0
:102E0000670C88898F5F888B8889843008F443CF6A
:102E100089898A8B8A8962960FB6F894DEBF0FBEC5
:102E2000CDBFCF91DF910895DF93CF93CDB7DEB7BC
:102E300083E062E00E94180E882341F481E00E9442
:102E4000441980E690E00E94F00807C080E00E94EC
:102E5000441986E990E00E94F008CF91DF9108952F
:102E6000DF93CF93CDB7DEB783E063E00E94180E07
:102E7000882341F481E00E942E198EEC90E00E949C
:102E8000F00807C080E00E942E1983E091E00E94C4
:102E9000F008CF91DF910895DF93CF93CDB7DEB7E0
:102EA00029970FB6F894DEBF0FBECDBF80E063E078
:102EB00041E00E942F0B80E063E041E00E94670C3C
:102EC00080E062E041E00E942F0B80E062E041E0A0
:102ED0000E94670C0E94930E83E062E040E00E9433
:102EE0002F0B83E063E040E00E942F0B83E062E061
:102EF00041E00E94670C83E063E041E00E94670CC0
:102F00001A8281E08B8384E197E19D838C8381E049
:102F10008E8381E08F8380E397E199878887CE0154
:102F200002960E943D09CE0106960E943D090E942C
:102F30002F160E947E0F83E080934704109248046E
:102F40001092490483E380934D0481E080934E0402
:102F500010924F0410924A0487E494E00E941707ED
:102F600087E494E00E9485080E94D30889838981C0
:102F70000E94B90889818334B9F78AE391E00E94FD
:102F8000F00829960FB6F894DEBF0FBECDBFCF91E3
:102F9000DF910895DF93CF93CDB7DEB7AA970FB631
:102FA000F894DEBF0FBECDBFCE0145969FA38EA382
:102FB000E1E4F1E0F9A7E8A7F1E1FAA7E8A5F9A5AE
:102FC000008088A599A5019699A788A7EEA1FFA1E1
:102FD00000828EA19FA101969FA38EA39AA59150D6
:102FE0009AA7EAA5EE2351F7188A198A1A8A1B8A2A
:102FF000CE0145960E94231462E070E080E090E0EC
:1030000021E030E040E050E00E9453150E943E165F
:103010008C8B8C898D3309F4A3C08C898033B0F3F9
:103020008C898A3398F78C890E94131380E090E092
:10303000A8E4B2E48B879C87AD87BE876B857C85CF
:103040008D859E8520E030E04AEF54E40E941F0207
:10305000DC01CB018F839887A987BA876F81788538
:1030600089859A8520E030E040E85FE30E942504EE
:1030700088232CF481E090E09E838D833FC06F8194
:10308000788589859A8520E03FEF4FE757E40E94D5
:10309000C50318164CF56B857C858D859E8520E0D3
:1030A00030E040E251E40E941F02DC01CB01BC0190
:1030B000CD010E944900DC01CB019E838D830FC0AE
:1030C00088EC90E09C838B838B819C810197F1F746
:1030D0009C838B838D819E8101979E838D838D81BF
:1030E0009E81009769F714C06F81788589859A85DC
:1030F0000E944900DC01CB019E838D838D819E81DE
:103100009A83898389819A810197F1F79A838983C8
:103110008C89882F90E0C0979C01442737FD40950B
:10312000542F88899989AA89BB89820F931FA41F6C
:10313000B51F888B998BAA8BBB8B88899989AA89A3
:10314000BB892AE030E040E050E0BC01CD010E94A4
:10315000001CDC01CB01888B998BAA8BBB8B56CFD3
:1031600088899989AA89BB892AE030E040E050E04B
:10317000BC01CD010E941F1CDA01C901888B998B0B
:10318000AA8BBB8B1F8688899989AA89BB898236BD
:10319000F4E09F07F0E0AF07F0E0BF0711F081E037
:1031A0008F878F85AA960FB6F894DEBF0FBECDBF6E
:1031B000CF91DF910895DF93CF930F92CDB7DEB714
:1031C0000E94140FDC01CB01898389810F90CF917C
:1031D000DF910895DF93CF9300D000D000D0CDB71A
:1031E000DEB70E946D0F9A83898389819A81019647
:1031F0009A83898389819A81CC01A0E0B0E0BC01E7
:10320000CD010E94A904DC01CB01BC01CD0120E06D
:1032100030E040E854E40E941903DC01CB01BC011A
:10322000CD0120E030E048EC52E40E941F02DC01B6
:10323000CB018B839C83AD83BE836B817C818D812D
:103240009E810E944900DC01CB0126960FB6F894BE
:10325000DEBF0FBECDBFCF91DF910895DF93CF9337
:1032600000D0CDB7DEB78A8319828A81882311F412
:1032700081E0898380E062E049810E94670C0F90C1
:103280000F90CF91DF910895DF93CF9300D0CDB70A
:10329000DEB78A8319828A81882311F481E08983C9
:1032A00080E063E049810E94670C0F900F90CF91FE
:1032B000DF910895DF93CF93CDB7DEB70E946614F8
:1032C00082E591E00E94231484E691E00E94F008D8
:1032D00088E791E00E94F00887E494E00E949F084C
:1032E000FFCFEF92FF920F931F93DF93CF93CDB752
:1032F000DEB7E3970FB6F894DEBF0FBECDBF1EA6B4
:103300000E944C1781E991E00E94F0080E94CA17C0
:10331000882309F488C089EA91E00E94F0088EA50C
:103320008F5F8EA78EA5833018F00E945A19EECFBA
:103330000E94661487EB91E00E94231480E090E0E5
:10334000AAEFB3E48FA398A7A9A7BAA76FA178A5FE
:1033500089A59AA520E030E04AEF54E40E941F02BC
:10336000DC01CB018BA39CA3ADA3BEA36BA17CA16D
:103370008DA19EA120E030E040E85FE30E9425049B
:1033800088232CF481E090E09AA389A33FC06BA12D
:103390007CA18DA19EA120E03FEF4FE757E40E9462
:1033A000C50318164CF56FA178A589A59AA520E04C
:1033B00030E040E251E40E941F02DC01CB01BC017D
:1033C000CD010E944900DC01CB019AA389A30FC063
:1033D00088EC90E098A38F8F8F8D98A10197F1F7DB
:1033E00098A38F8F89A19AA101979AA389A389A1F4
:1033F0009AA1009769F714C06BA17CA18DA19EA131
:103400000E944900DC01CB019AA389A389A19AA15A
:103410009E8F8D8F8D8D9E8D0197F1F79E8F8D8F55
:103420000E94661473CF82EC91E00E94F0080E9423
:10343000661487ED91E00E94231480E090E0AAEFEB
:10344000B3E4898F9A8FAB8FBC8F698D7A8D8B8D0A
:103450009C8D20E030E04AEF54E40E941F02DC0122
:10346000CB018D8B9E8BAF8BB88F6D897E898F89B9
:10347000988D20E030E040E85FE30E942504882337
:103480002CF481E090E09C8B8B8B3FC06D897E8912
:103490008F89988D20E03FEF4FE757E40E94C503E6
:1034A00018164CF5698D7A8D8B8D9C8D20E030E05F
:1034B00040E251E40E941F02DC01CB01BC01CD01BE
:1034C0000E944900DC01CB019C8B8B8B0FC088ECE8
:1034D00090E09A8B898B89899A890197F1F79A8B69
:1034E000898B8B899C8901979C8B8B8B8B899C8981
:1034F000009769F714C06D897E898F89988D0E9425
:103500004900DC01CB019C8B8B8B8B899C89988B30
:103510008F878F8598890197F1F7988B8F870E9405
:10352000661487EE91E00E94231480E241E050E0AF
:1035300060E070E008E010E020E030E00E949415C8
:103540008CEE91E00E94231480E242E050E060E0C3
:1035500070E008E010E020E030E00E9494150E9446
:10356000210982EF91E00E94F0080E94DB188DA7EC
:103570000E94EA18882F90E09CA78BA783E192E035
:1035800042E050E060E070E001E010E020E030E078
:103590000E94C3158DA5882F90E0A0E0B0E0BC018B
:1035A000CD0122E030E040E050E0EE24FF2487012E
:1035B000E3940E94F41583E40E94131383E192E0E4
:1035C00042E050E060E070E009E010E020E030E030
:1035D0000E94C3158BA59CA5CC01A0E0B0E0BC0166
:1035E000CD0122E030E040E050E00F2EF9E0EF2E78
:1035F000F0E0FF2EF0E00F2FF0E01F2FF02D0E94E3
:10360000F41585E20E9413138DA5882F90E09E018A
:10361000215D3F4FB9014AE050E00E94931C8DA507
:103620008F3180F088E192E00E94F008CE018F9601
:103630000E94F00884E392E00E94F00881E00E947A
:10364000441926C083E062E00E94180E882381F0AE
:1036500089E392E00E94F008CE018F960E94F00864
:1036600084E392E00E94F00880E00E94441910C0B8
:1036700086E592E00E94F00884E892E00E94F0085B
:10368000CE018F960E94F00884E392E00E94F00839
:103690008BA59CA59E01215D3F4FB9014AE050E0FA
:1036A0000E94931C8BA59CA58233910580F48BE925
:1036B00092E00E94F008CE018F960E94F0088AEBFB
:1036C00092E00E94F00881E00E942E1926C083E05B
:1036D00063E00E94180E882381F08FEB92E00E9435
:1036E000F008CE018F960E94F0088AEB92E00E94CB
:1036F000F00880E00E942E1910C08FED92E00E9429
:10370000F0088CE093E00E94F008CE018F960E94B2
:10371000F0088AEB92E00E94F00880E090E0AAE7CF
:10372000B4E48B879C87AD87BE876B857C858D8550
:103730009E8520E030E04AEF54E40E941F02DC0145
:10374000CB018F839887A987BA876F817885898510
:103750009A8520E030E040E85FE30E94250488235A
:103760002CF481E090E09E838D833FC06F8178854B
:1037700089859A8520E03FEF4FE757E40E94C50313
:1037800018164CF56B857C858D859E8520E030E094
:1037900040E251E40E941F02DC01CB01BC01CD01DB
:1037A0000E944900DC01CB019E838D830FC088EC11
:1037B00090E09C838B838B819C810197F1F79C83A4
:1037C0008B838D819E8101979E838D838D819E81C8
:1037D000009769F7C6CE6F81788589859A850E94A2
:1037E0004900DC01CB019E838D838D819E819A836C
:1037F000898389819A810197F1F79A838983B1CE70
:10380000629FD001739FF001829FE00DF11D649FC4
:10381000E00DF11D929FF00D839FF00D749FF00D50
:10382000659FF00D9927729FB00DE11DF91F639FF1
:10383000B00DE11DF91FBD01CF0111240895A1E2D2
:103840001A2EAA1BBB1BFD010DC0AA1FBB1FEE1F1A
:10385000FF1FA217B307E407F50720F0A21BB30B65
:10386000E40BF50B661F771F881F991F1A9469F7E1
:1038700060957095809590959B01AC01BD01CF013D
:10388000089597FB092E05260ED057FD04D0D7DFEB
:103890000AD0001C38F450954095309521953F4F43
:1038A0004F4F5F4F0895F6F790958095709561950D
:1038B0007F4F8F4F9F4F08952F923F924F925F926D
:1038C0006F927F928F929F92AF92BF92CF92DF9230
:1038D000EF92FF920F931F93CF93DF93CDB7DEB795
:1038E000CA1BDB0B0FB6F894DEBF0FBECDBF099429
:1038F0002A88398848885F846E847D848C849B8480
:10390000AA84B984C884DF80EE80FD800C811B818D
:10391000AA81B981CE0FD11D0FB6F894DEBF0FBEBC
:10392000CDBFED010895FB019F01E8944230C4F042
:103930004532B4F44A3029F497FB1EF490958195F2
:103940009F4F642F77270E94C41C805D8A330CF040
:10395000895D8193CB010097A1F716F45DE2519345
:103960001082C9010C94B41CDC01FC01672F719119
:103970007723E1F7329704C07C916D937083629155
:10398000AE17BF07C8F30895AA1BBB1B51E107C0C0
:10399000AA1FBB1FA617B70710F0A61BB70B881FDF
:1039A000991F5A95A9F780959095BC01CD0108956E
:0439B000F894FFCFB9
:1039B4000A0D2A2A2A5377697463682031207072A9
:1039C400657373656421204D616E75616C6C79203B
:1039D4007475726E696E67206F6E206D6F746F728E
:1039E400210A0D0A0D000A0D2A2A2A5377697463E5
:1039F4006820312072656C656173656421204D61B6
:103A04006E75616C6C79207475726E696E67206F67
:103A14006666206D6F746F72210A0D0A0D000A0D1F
:103A24002A2A2A5377697463682032207072657376
:103A340073656421204D616E75616C6C79207475B9
:103A4400726E696E67206F6E206C616D70210A0D55
:103A54000A0D000A0D2A2A2A5377697463682032F2
:103A64002072656C656173656421204D616E7561BA
:103A74006C6C79207475726E696E67206F6666204F
:103A84006C616D70210A0D0A0D000A0D0A0D0A0DF4
:103A940000456E7465722050617373776F72643A77
:103AA400200053797374656D2069732073746F708B
:103AB4006564210053797374656D20697320737490
:103AC4006F706564210A0D00526561736F6E3A2050
:103AD400496E76616C6964206C6F67696E200A0DAB
:103AE4000057656C636F6D6520746F2053616D7250
:103AF4007420486F6D650A0D004661696C206C6F17
:103B040067696E210A0D0054727920416761696EFC
:103B140021005375636365737366756C206C6F67FE
:103B2400696E20210A0D00596F752063616E204172
:103B34006363657373210054656D70004C69676835
:103B440074002D2D2D2D2D2D2D2D2D2D2D2D2D2D87
:103B54002D2D2D2D2D2D2D2D2D2D2D2D2D2D2D2D91
:103B64000A0D0020202020004D6F746F72206973AD
:103B7400206F6E2C2074656D70657261747572654A
:103B8400203D200043210A0D004D6F746F7220699F
:103B940073206F66662C2074656D70657261747530
:103BA4007265203D200043616E6E6F7420747572DF
:103BB4006E206F6666206D6F746F722C2073776948
:103BC400746368203120697320707265737365644F
:103BD400210A0D0043757272656E742074656D70F0
:103BE40065726174757265203D20004C616D7020B2
:103BF4006973206F6E2C204C6967687420696E7439
:103C0400656E73697479203D200025210A0D004CEE
:103C1400616D70206973206F66662C204C6967683B
:103C24007420696E74656E73697479203D20004355
:103C3400616E6E6F74207475726E206F6666206C90
:103C4400616D702C20737769746368203220697306
:103C54002070726573736564210A0D004375727276
:103C6400656E74204C6967687420696E74656E7340
:103C7400697479203D20000000000000000000006D
:103C840001020203030303040404040404040405FA
:103C940005050505050505050505050505050506CF
:103CA40006060606060606060606060606060606B0
:103CB400060606060606060606060606060606079F
:103CC4000707070707070707070707070707070780
:103CD4000707070707070707070707070707070770
:103CE4000707070707070707070707070707070760
:103CF400070707070707070707070707070707084F
:103D0400080808080808080808080808080808082F
:103D1400080808080808080808080808080808081F
:103D2400080808080808080808080808080808080F
:103D340008080808080808080808080808080808FF
:103D440008080808080808080808080808080808EF
:103D540008080808080808080808080808080808DF
:103D640008080808080808080808080808080808CF
:103D74000808080808080808080808080808083790
:103D840038392F343536783132332D43303D2B00DA
:00000001FF
